:020000040800F2
:100000007806002081010008090F00087D0E000815
:1000100000000000000000000000000000000000E0
:100020000000000000000000000000000D0F0008AC
:1000300000000000000000000B0F00080F0F000878
:1000400093010008000000009301000893010008DC
:100050009301000893010008930100089301000830
:1000600000000000930100089301000893010008BC
:1000700093010008930100089301000800000000AC
:100080009301000800000000000000009301000838
:10009000000000009301000893010008930100088C
:1000A00093010008930100089301000893010008E0
:1000B00093010008000000000000000000000000A4
:1000C00000F002F800F04CF812A030C808382418EC
:1000D0002D18AC4201D100F043F80FCCA246AB463C
:1000E0000CA730CF2D1B083F3F197C427F1E544484
:1000F0002D090426F441641EAC4201D300F030F80F
:100100000126334200D0FB1A3343984754465D46DC
:10011000DFE700004011000060110000103A02D338
:1001200078C878C1FAD8520701D330C830C101D598
:1001300004680C6070470000704700000023002432
:1001400000250026103A01D378C1FBD8520700D30E
:1001500030C100D50B6070471FB51FBD10B510BD75
:1001600000F049F91146FFF7F7FF00F0D7FE00F065
:1001700061F903B4FFF7F2FF03BC00F067F9000078
:100180000748804707480047FEE7FEE7FEE7FEE72F
:10019000FEE7FEE704480549054A064B70470000A4
:1001A0001B0F0008C100000878000020780600201E
:1001B000780200207802002001E004C0091F042911
:1001C000FBD28B0701D50280801CC90700D00270CA
:1001D000704700290BD0C30702D00270401C491E93
:1001E000022904D3830702D50280801C891EE3E71D
:1001F0000022EEE70022DFE7002203098B4273D3DF
:10020000030A8B4258D3030B8B423CD3030C8B4223
:1002100021D312E003460B437FD4002243088B42D4
:1002200074D303098B425FD3030A8B4244D3030B7D
:100230008B4228D3030C8B420DD30902FF2212BA42
:10024000030C8B4202D31212090265D0030B8B42BE
:1002500019D300E0090AC30B8B4201D3CB03C01AA8
:100260005241830B8B4201D38B03C01A5241430B83
:100270008B4201D34B03C01A5241030B8B4201D373
:100280000B03C01A5241C30A8B4201D3CB02C01ADE
:100290005241830A8B4201D38B02C01A5241430A56
:1002A0008B4201D34B02C01A5241030A8B4201D345
:1002B0000B02C01A5241CDD2C3098B4201D3CB01EC
:1002C000C01A524183098B4201D38B01C01A52419B
:1002D00043098B4201D34B01C01A524103098B429F
:1002E00001D30B01C01A5241C3088B4201D3CB008A
:1002F000C01A524183088B4201D38B00C01A52416D
:1003000043088B4201D34B00C01A5241411A00D21C
:1003100001465241104670475DE0CA0F00D0494285
:10032000031000D3404253409C46002203098B42F5
:100330002DD3030A8B4212D38901FC2212BA030A7D
:100340008B420CD3890192118B4208D389019211FF
:100350008B4204D389013AD0921100E08909C30984
:100360008B4201D3CB01C01A524183098B4201D386
:100370008B01C01A524143098B4201D34B01C01A71
:10038000524103098B4201D30B01C01A5241C308E9
:100390008B4201D3CB00C01A524183088B4201D358
:1003A0008B00C01A5241D9D243088B4201D34B0073
:1003B000C01A5241411A00D20146524110466346CA
:1003C0005B1001D34042002B00D549427047634681
:1003D0005B1000D3404201B50449002802DC491CEF
:1003E000084000E00846C046C04602BDFFFFFF7F50
:1003F000704770477047754600F024F8AE46050018
:1004000069465346C008C000854618B020B5FFF7BE
:10041000C1FE60BCB64600260027C0C5C0C5C0C529
:10042000C0C5C0C5C0C5C0C5C0C5403D490849001C
:100430008D46704710B50446C046C0462046FFF7BB
:1004400098FE10BD00487047100000200149182098
:10045000ABBEFEE7260002007047000070B500F05A
:100460004DF904460526314600F0D0FD05464643C9
:10047000A01B00D070BD03200540284600F09AFD67
:100480002E48415D974CFF2913D04157002919D4BC
:10049000415D405D0F2202401148855CC80601D5D0
:1004A0008020054301222046294600F01FF9E84339
:1004B0000EE000210122204600F018F94020C04340
:1004C000403005E040210122204600F00FF90348AA
:1004D00081B20022204600F009F970BDBFFF000084
:1004E00044120008F0B581B004461348844208D98C
:1004F000002012490F220A54401C0828FAD101B0EA
:10050000F0BD00273E4605E00C498A55761C042EB6
:100510000446F4D00A252046294600F077FD4543DD
:10052000611B002E03D10A46002CEDD002E0FA43F5
:10053000002CE9D00A46E7E70F27000070000020F2
:10054000B0B5044600F0DAF80546601C02D08C48CD
:100550000078041900F0D2F8401BA042FAD3B0BDD5
:10056000F0B589B006900B68002B00D1B1E05A4875
:10057000069A824201D0052000E003200090002668
:1005800008963446374603910EE01843544A1060EB
:100590007F1C0B681846F8400836089A121D08920E
:1005A000A41C002800D194E001250195BD402B40FA
:1005B0000493EDD0496803220B461340581E0128CE
:1005C0000796059211D81046A040069EB268824355
:1005D0000398C068A0401043B060C806C00FB84080
:1005E0007268AA4302437260059A032B0399069D21
:1005F0001CD01046A040EA6882438868A04010439F
:10060000059AE860022B11D11C20089908400F219F
:100610008140FA089200AA18136A8B4303990D6966
:1006200085401D4303991562059A069D1046A0401A
:100630002B6883434868860302961040A040184305
:1006400028600298800F079EA2D038469043234A24
:1006500013181E6E05200007069A82420AD0214810
:10066000824205D020488242009D04D1022502E04A
:10067000019D00E000251820079A10400F228240BB
:1006800096436033854035431D60144800684D68CB
:10069000EA0202D5049B184301E0049B9843079E9D
:1006A0000E4A10605068AA0201D5184300E0984332
:1006B0000A4A50600A484068AA0301D5184300E07E
:1006C0009843074A50601068EA0300D55DE79843F5
:1006D0005CE709B0F0BDC046000C005000180240B5
:1006E000801802400004005000080050002A02D088
:1006F00018228150704728228150704705480068B1
:100700007047C0461E48007802490A681018086001
:100710007047C0467400002010B501242002BB4978
:100720000A6802430A60032000F00AF8002801D09A
:10073000204610BD00F026F80024204610BDC0461B
:10074000B0B505460E4801780124002916D07D2059
:10075000C00000F05BFC0146B248006800F056FCA7
:1007600000F072FB032D09D8002807D10024E043D4
:100770002946224600F01CF8AB4805602046B0BD73
:100780000400002082B00948416801221143416001
:100790004168114001910199110702680A43026002
:1007A000006808400090009802B070473C1002407A
:1007B000002805D40322034693430A4A9A1803E00B
:1007C0000C220240064BD2188007C00E8901C9B224
:1007D0008140FF23834010689843084310607047AE
:1007E00014ED00E000E400E0F0B581B003256902FB
:1007F0000F4E32688A430243326001214A020024CC
:10080000904212D187480268706940050DD58F0269
:1008100006205043074900F0F9FB801C401E03D01E
:1008200071693942FAD100E02C46204601B0F0BD92
:100830000070004040420F00F0B583B00D4601212A
:10084000002800D1CFE00191029070480068072491
:100850002040A84213D26D490868A043284308608D
:100860006B4EFFF74BFF0746684800682040A842E0
:1008700005D0FFF743FFC01BB042F5D9B2E0029E9E
:1008800030688107634B0CD5410703D521031A68F3
:100890000A431A600F2109021A688A43B16811439A
:1008A0001960C00718D1594800682040A84228D9CB
:1008B00056490868A04328430860554FFFF71EFFBC
:1008C0000646524800682040A8421AD0FFF716FF9B
:1008D000801BB842F5D985E00298406803285AD8B1
:1008E000810001A251588F46F90800089B090008B1
:1008F000A5090008AF090008194608390968490523
:1009000057E0029A10784007424B05D5200319683A
:100910008143D0680843186018688006400F22D0D1
:100920001A6838210A403C48082A23D01A680A402D
:10093000102A5BD1596803220A40032A00D03748A5
:1009400059684906490F491C00F060FB3149496864
:100950004904490E48432F494968490F491C00F092
:1009600055FB2C4B06E01846083800688004410F00
:100970002A48C840196889093C220A4028498958F0
:100980001F220A40D0402749086027480068FFF727
:10099000D7FE014627E0596D0AE019460839096873
:1009A000890306E0194608390968890101E0996D53
:1009B0008907019917D51968A14301431960144F9C
:1009C000FFF79CFE06461348006838210140029854
:1009D0004068C000814200D165E7FFF78FFE801BB1
:1009E000B842F0D90321084603B0F0BD18680840AA
:1009F000202802D10120C003BCE71868084018284D
:100A000001D00020B6E77D200002B3E700200240BD
:100A1000881300000810024000127A000024F4003D
:100A2000041200080000002008000020F0B587B084
:100A30000127002800D1F4E1049705900078C00751
:100A4000F94E2CD10598007880074CD40598007891
:100A500000070DD5B06838210140182900D0A4E066
:100A6000306E800704D505988069002800D18CE19C
:100A700005980078400700D45BE1B0683821014058
:100A8000202900D0A8E0F06D800700D44EE1059841
:100A90008068002800D049E10020012747E1B068C4
:100AA000F16803273A468A43382101401020484024
:100AB000821850425041082945D0002843D105985A
:100AC0004268052000048242039200D1B6E0012072
:100AD00001048A4200D1B7E032688A43326081045F
:100AE00030688843B2E0B1683820084010214140A6
:100AF000F26803273A4002235340CA185142514139
:100B000000282AD0002928D1306801218C02059BB9
:100B1000DA68002A00D1B6E00722D20290431A69AF
:100B2000024332600802316801433160FFF7E6FD9D
:100B300005463068204200D0B5E0FFF7DFFD401BDE
:100B40000228F6D96DE13068800300D47AE7059871
:100B50004068002800D075E717E131684905059B1A
:100B600003D5D968002900D10FE17F2109027268FD
:100B70008A43596909021143716000280DD1072089
:100B8000C0023168814318690843306030688004CE
:100B9000400FA649C140A6480160A6480068FFF77B
:100BA000CFFD002800D0F0E050E7306E059989694C
:100BB000002900D181E0012108433066FFF79EFD46
:100BC0000546306E800700D552E7FFF797FD401BC2
:100BD00003270228F5D924E1012003900107F06BD7
:100BE0000840029006D1F06B0843F063F06B0840B8
:100BF000069006980191904C2068C00510D4039887
:100C00000702206838432060FFF778FD054620681A
:100C1000384205D1FFF772FD401B0228F7D973E077
:100C200005988468052C59D0012C5BD0F06D039990
:100C30008843F065F06D0421884356E0012081046B
:100C400032680A4332600104306808433060012092
:100C50004404FFF753FD0546039800280FD0306881
:100C6000204200D0EEE6FFF749FD401B6428F6D98C
:100C7000D7E0FFF743FD401B642800D9D1E030687E
:100C80002042F6D1DEE6090288433060FFF736FDE8
:100C900005463068204200D1D8E6FFF72FFD401B03
:100CA0000228F6D9BDE07F200002716881430598D3
:100CB0004069000208437060C8E60121884330663D
:100CC000FFF71CFD0546306E800700D4D0E6FFF725
:100CD00015FD401B03270228F5D9A2E0F06D042181
:100CE0000143F165F06D03990843F065534FFFF739
:100CF00005FD0546002C0FD0F06D80070FD4FFF7DF
:100D0000FDFC401BB842F7D9002003270FE0FFF796
:100D1000F5FC401BB842F7D8F06D8007F7D4029875
:100D2000002803D1F06B01998843F063012000286B
:100D300077D00598C469002C72D0B0683821014082
:100D4000102924D1012C20D0F06803210140059BFB
:100D50001A6A914219D1702101405A6A914214D104
:100D60007F21090201409A6A120291420DD11F218E
:100D700049040140DA6A9142049F52D10721490790
:100D80000840196B88424BD04BE0049F49E0012793
:100D900039063068049188433060FFF7AFFC0546A0
:100DA000022C0BD103977C063068204211D0FFF74C
:100DB000A5FC401B03270228F6D932E07C063068E8
:100DC000204229D0FFF79AFC401B03270228F6D9BE
:100DD00027E0F0681B490140059F2037ADCF08434D
:100DE00010431902014329433943F16030680499E3
:100DF0000843306003980007F1680143F160FFF792
:100E00007DFC0546306820420AD1FFF777FC401B85
:100E100003270228F6D904E0F06809490140F1608F
:100E20000027F8B207B0F0BD001002400024F40023
:100E3000000000200800002000700040881300001F
:100E4000FCFFFEEF8C80C11F401E010E01D001206F
:100E500070470749074A5060074803680B40032161
:100E600089075918016000209060072111607047C0
:100E7000FFFFFF0010E000E020ED00E0FEE70000D3
:100E8000F0B587B00024069405940494039402946A
:100E90001B48016802221143016001681140019161
:100EA00001990168012529430160016829400191E8
:100EB0000199016808221143016000681040019007
:100EC00001981048FF2739462246FFF70FFC4C488F
:100ED0000F2631462A46FFF709FC05940494039532
:100EE000029702AF07483946FFF73AFB059404948E
:100EF0000395029642483946FFF732FB07B0F0BD32
:100F00003410024000040050FEE77047704780B57F
:100F1000FFF7F8FBFFF7A2FA80BD704792B0FFF72A
:100F2000FBFB05AC34212046FFF764F9002604964C
:100F300003960296019601277802FFF755FC780781
:100F400011907804109008200F900E9602250D95B0
:100F50000C9540200A900996380208900595204685
:100F6000FFF764FD002803D0EFF3108072B6FEE7B0
:100F70000496039607200190029501A82946FFF7E1
:100F80005BFC002803D0EFF3108072B6FEE7FFF79A
:100F900077FF7D20C4002046FFF7D2FAFFF7AEFBB3
:100FA000642100F033F82146FFF726F90846FFF7E1
:100FB00099FAEEE770B503281ED8C5000F4E3046EB
:100FC000FF30E840C2B20E4C01212046FFF78EFBF5
:100FD000EE40F2B202212046FFF788FB0948E840C4
:100FE000C2B204212046FFF781FB0748E840C2B2A5
:100FF00008212046FFF77AFB70BDC04601000101C1
:10100000000C0050010100010101010043088B4266
:101010001AD3002203098B4279D3030A8B425ED391
:10102000030B8B4242D3030C8B4227D30902FF22CE
:1010300012BA030C8B4202D31212090203D0030B23
:101040008B4233D31AE0D3E0411A8041401C7047F1
:1010500003460B4371D443088B42F5D300220309A6
:101060008B4254D3030A8B4239D3030B8B421DD3DB
:10107000030C8B4202D394466EE0090AC30B8B42E9
:1010800001D3CB03C01A5241830B8B4201D38B0394
:10109000C01A5241430B8B4201D34B03C01A524139
:1010A000030B8B4201D30B03C01A5241C30A8B427C
:1010B00001D3CB02C01A5241830A8B4201D38B0267
:1010C000C01A5241430A8B4201D34B02C01A52410B
:1010D000030A8B4201D30B02C01A5241CDD2C3097D
:1010E0008B4201D3CB01C01A524183098B4201D3F9
:1010F0008B01C01A524143098B4201D34B01C01AE4
:10110000524103098B4201D30B01C01A5241C3085B
:101110008B4201D3CB00C01A524183088B4201D3CA
:101120008B00C01A524143088B4201D34B00C01AB6
:101130005241411A524110007047CA0F00D0494233
:10114000031000D34042534000229C4603098B42C7
:101150002DD3030A8B4212D38901FC2212BA030A4F
:101160008B420CD3890192118B4208D389019211D1
:101170008B4204D3890137D0921100E08909C30959
:101180008B4201D3CB01C01A524183098B4201D358
:101190008B01C01A524143098B4201D34B01C01A43
:1011A000524103098B4201D30B01C01A5241C308BB
:1011B0008B4201D3CB00C01A524183088B4201D32A
:1011C0008B00C01A5241D9D243088B4201D34B0045
:1011D000C01A5241411A00D201465241104663469C
:1011E0005B1000D34042704763465B1000D340421F
:1011F00001B50021004201D0C9430846C046C0469F
:1012000002BD00000000000000000000000000001F
:1012100000000000000000000000000000000000CE
:1012200000000000010000000200000003000000B8
:101230000400000006000000070000000800000095
:10124000090000003F065B4F666D7D077F6F777C6E
:10125000395E79717812000800000020100000004B
:101260001C01000888120008100000206806000019
:101270003C010008000000000024F4000100000010
:08128000040000000000000062
:04000005080000C12E
:00000001FF
