:020000040800F2
:10000000C80700207D020008395C00083958000844
:1000100000000000000000000000000000000000E0
:100020000000000000000000000000003F5C00082D
:1000300000000000000000003D5C0008915C00082A
:100040008F020008000000008F0200088F020008E5
:100050008F0200088F0200088F0200088F0200083C
:10006000000000008F0200088F0200088F020008C5
:10007000292800088F0200088F02000800000000F5
:100080008F02000800000000000000008F0200083E
:10009000000000008F0200088F0200088F02000895
:1000A0008F0200088F0200088F020008316A0008E2
:1000B0008F020008000000000000000000000000A7
:1000C00000F002F800F0CBF812A030C8083824186D
:1000D0002D18AC4201D100F0C2F80FCCA246AB46BD
:1000E0000CA730CF2D1B083F3F197C427F1E544484
:1000F0002D090426F441641EAC4201D300F0AFF890
:100100000126334200D0FB1A3343984754465D46DC
:10011000DFE7000084730000A4730000103A02D3EC
:1001200078C878C1FAD8520701D330C830C101D598
:1001300004680C6070470000704700000023002432
:1001400000250026103A01D378C1FBD8520700D30E
:1001500030C100D50B60704710B56E2902D101F097
:10016000B1F810BD702902D101F0EBF910BD66297C
:1001700002D107F043F810BD652902D107F03EF81F
:1001800010BD672902D107F039F810BD612902D1ED
:1001900007F03CF810BD03681B0A01D38023194304
:1001A000692902D101F058F810BD642902D101F08B
:1001B00053F810BD752902D101F04EF810BD6F291A
:1001C00002D101F069F910BD782902D101F0A6F938
:1001D00010BDE92902D101F005F910BDE42902D1D1
:1001E00001F000F910BDF52902D101F0FBF810BDB6
:1001F000EF2902D101F05CF910BDF82902D101F01C
:100200009BF910BD0368DB0901D3802319436329DF
:1002100002D101F0BEFE10BD732902D101F0C1FE72
:1002200010BDE32902D101F0CBFE10BDF32902D1AC
:1002300001F0CEFE10BD002010BD1FB501F028FF5B
:1002400004000020002106F0BDFE401C606000207C
:10025000002106F0A1FEE0601FBD10B510BD01F049
:10026000F0FE1146FFF7E9FF06F040FC02F084FAC9
:1002700003B4FFF7F2FF03BC02F0CEFA0748804751
:1002800007480047FEE7FEE7FEE7FEE7FEE7FEE77A
:1002900004480549054A064B704700001D5D0008EB
:1002A000C1000008C8010020C8070020C8030020C2
:1002B000C80300200FB41CB5084B06AA7B4469464E
:1002C0000090059801F017F804460020694601F0F7
:1002D00025F820461CBC08BC04B018475D1000007F
:1002E00001E004C0091F0429FBD28B0701D502805D
:1002F000801CC90700D00270704700290BD0C307CB
:1003000002D00270401C491E022904D3830702D583
:100310000280801C891EE3E70022EEE70022DFE76F
:10032000002203098B422CD3030A8B4211D30023F2
:100330009C464EE003460B433CD4002243088B42CC
:1003400031D303098B421CD3030A8B4201D3944659
:100350003FE0C3098B4201D3CB01C01A524183094C
:100360008B4201D38B01C01A524143098B4201D306
:100370004B01C01A524103098B4201D30B01C01A31
:100380005241C3088B4201D3CB00C01A52418308AB
:100390008B4201D38B00C01A524143088B4201D3D8
:1003A0004B00C01A5241411A00D201465241104638
:1003B00070475DE0CA0F00D04942031000D34042AD
:1003C00053409C46002203098B422DD3030A8B42E3
:1003D00012D38901FC2212BA030A8B420CD3890181
:1003E00092118B4208D3890192118B4204D3890167
:1003F0003AD0921100E08909C3098B4201D3CB01A5
:10040000C01A524183098B4201D38B01C01A524159
:1004100043098B4201D34B01C01A524103098B425D
:1004200001D30B01C01A5241C3088B4201D3CB0048
:10043000C01A524183088B4201D38B00C01A52412B
:10044000D9D243088B4201D34B00C01A5241411A02
:1004500000D201465241104663465B1001D3404230
:10046000002B00D54942704763465B1000D34042E1
:1004700001B50549002802DC491C084000E0084697
:10048000C046C04602BD00BFFFFFFF7F70477047F8
:10049000704700000246C80FC00781434B0030B5CB
:1004A0004B405B009B0D20D01923DB06C9180123AC
:1004B0001B05994220DB0324A40704251346AB4007
:1004C0000BD3002B04D1EB0613409B00E34204D472
:1004D00001246407002312195941FF231B05994287
:1004E0000BD2C9000143500F09E0CB0204D50143F0
:1004F0000803024305D0054830BDFF21C905084364
:1005000030BD084607210905884330BD0000C07F83
:10051000F0B50C46871A9C410D46861A9D4103D2C0
:10052000C01BA141D21963410D0D1F0DC94EEC1B1B
:10053000AE435CD07F057F0D0026002F51D02D05E6
:10054000AC46A943DD020123ED0A1B051D43202310
:100550001B1B24D41746E740381871412F46E7404B
:10056000CC199D402818314661410C0D27D16144BA
:100570009A4013D50023401C594152000ED1400827
:10058000400001224B005205D34207D3052040070B
:10059000C14201D5B04900E0B0493046F0BD6B0022
:1005A000002A00D001229A181F23203C1B1B01D5D2
:1005B000002302E0E540281871410C0DD7D001243A
:1005C00024050919C407CD0740084908E40F28434A
:1005D0006144002CD5D00024401C61419A40D0D108
:1005E000CDE76A05520DD9D1C90FC907D5E79C4D92
:1005F0004E00002801D0012400E0002434195F00DF
:10060000002A01D0012600E00026BE19954FAC4219
:100610000CD8AE420AD8B44206D001256D05EC4292
:10062000BCD010461946F0BD9942FCD00020394696
:10063000F0BDF0B51FB40C460F46811A9F41254608
:10064000861A9D4106D20125ED076F40401ABC4134
:1006500052187B41210D1E0D8D1BAC467D4D8D43E7
:100660007ED075056D0D7CD00D05AE46AC431B03E9
:100670001B0B794D52429D41202366469B1B14D390
:100680001746F740381800260090744160462F4600
:100690000741E41900989D402818664116D4714618
:1006A00071189A4025D5012320E093182A466A4103
:1006B0005200002B00D0521C1E23203E9B1B002BFF
:1006C00061DD3541EE1728186641E8D500187641FE
:1006D0005B1C9A4000D3401C4B05F3181524E340E3
:1006E00010D3002B52D071467118D30FC01802D30B
:1006F000491C05B0F0BD0123DB079A42F9D140083F
:100700004000F6E701225205B21801D1002853D06B
:100710000123CC0ADB029943891E002A08D1020C6E
:1007200003D0020C0004103902E0024600202039F8
:100730000023550B05D112020823550B01D152019C
:100740000D23550C01D112011B1DD50C01D19200B6
:100750009B1C150D01D152005B1C2025EE1A01E0F7
:100760002CE022E00546F54015439840CA1AE107FF
:1007700069181305C918002ABBDA032040070818B6
:10078000C10FC9070FE071466118B2E7F1074008D1
:100790000843711071444A000CD001235B059A4252
:1007A000A7D2C90FC9070020A3E74905490D26D1E3
:1007B000002001E00028F4D100219AE7284D6600CE
:1007C000002801D0012100E0002171185F00002AFB
:1007D00001D0012600E00026BE19224FA94210D800
:1007E000AE420ED8B14208D001256D05E94206D0CF
:1007F0001946A802414010467BE79C4201D02146A1
:1008000077E70020394674E710B50C465C4005D503
:100810000124E4076340FFF70CFF10BDFFF778FEEB
:1008200010BD30B40C465C4004D50124E40763409D
:1008300030BC6DE630BCFCE670B50124E4076140D5
:100840000D465D4002D4FFF763FE70BD6340FFF7C5
:10085000F0FE70BDFF0700000000F0FF0000F07F19
:100860000000E0FF0000F87FF0B5F94D0C091E090B
:100870002C402E402F468BB0A7437DD0B543FCD0F3
:10088000002E7AD0002CFCD00D465D40ED0F2543A4
:10089000AC1BFF25AD0464190894C502440DC902C0
:1008A0002143500DDC0204430120C00701430443EF
:1008B000D2020191200C110C00958C4601042346B4
:1008C0008B430A9161460904E24D8A430991010A6A
:1008D0007D4449198039097805464D4301266D1834
:1008E000F605751B6943C90C640B891C4C436418DD
:1008F000B5012C1B250C2E04B4434C434D43210C55
:10090000691889090591009DE90701D00121C907EE
:1009100004912C4601996708CD072F434C08059D8B
:10092000E10B4D432D0C29466646754302950D4655
:1009300045432E46029D7D1BB44100950D465D4307
:1009400001942C0C2F040D465543AE462D0C3D430F
:10095000029503947546049C2D04641B049406D2EE
:10096000029C039D641C002675410395029401AC12
:1009700070CC009F7D1B01E03EE162E1B4410904BF
:100980000095079101940599A4086143090C0C4650
:100990004443650BE7040C4666467443A646640B65
:1009A0003C43039502947446049DE4042C1B049478
:1009B00006D2029C039D641C002675410395029497
:1009C00001AC70CC009F7D1BB44101940C465C438C
:1009D0000095650FE7000C465443A646640F3C4360
:1009E000039502947446049DE4002C1B049406D2E3
:1009F000029C039D641C002675410395029401AC82
:100A000070CC009F7D1BB441AE09AF06049DC900A8
:100A1000AD092F43049DA406AD060495079D3443FC
:100A200069180791059DE10B4D432D0C294666463B
:100A3000754302950D4645432E46029D7D1BB441EC
:100A400000950D465D4301942C0C2F040D46554333
:100A5000AE462D0C3D43029503947546049C2D042F
:100A6000641B049406D2029C039D641C00267541FD
:100A70000395029401AC70CC009F7D1BB44101949E
:100A80008C050694079C890A611800950791019CC2
:100A90000599A4086143090C0D464543680BEF0412
:100AA0000D46644665436C0B3C43049FED047D1B7F
:100AB000AC4602D20025641C6841009E019D371B94
:100AC00085410846584301950C46460FC5005443DE
:100AD000600F28436546E4002C1B02D20025401C11
:100AE0006E41019D3F1AB5412846BD098006284345
:100AF0008446A009BF064E020699A406761807434D
:100B0000079D002068410A99079019430020099B1E
:100B100000906046FF1913434041E20F64003A43DE
:100B2000A4460446D71A8C41A04203D90120009064
:100B300020463A46C70F941840416246D20F2243DE
:100B4000644664000494009CBE466400D71AA44620
:100B5000044602978C417746002F01D1A04204D968
:100B60006046401C8446029A2046C40FA64694184C
:100B70004041049A0546D20F224364466400D31ACA
:100B80008D417146002901D1A84202D928461A4652
:100B9000641C10430122002800D01643610200208B
:100BA000079B891904465C410223002C02DB49188B
:100BB00013466441089DCE0A2D145D194B05670547
:100BC000E10A2C050D1908993E43C9076940002B1D
:100BD00008D0934006D30022761C5141002B01D14E
:100BE000760876001C4A002D43DB154241D0AA430B
:100BF0003FD030460BB0F0BD06180D464D41174CA6
:100C00007642AC411AD395181C465C41134A6D429A
:100C1000A24113D3012252054C00D4420AD15C00F8
:100C2000D4420BD04B4002D592021143E2E7490077
:100C30004908DFE75940C90FC90718E000200849F3
:100C4000D8E7054801420DD10342F7D0F2E7000092
:100C50000000FF07486900000000F07F0000E0FF8F
:100C60000000F87F114859400143C0124140002064
:100C7000C0E70123089A9B069A4205DC032252072B
:100C80008918C90FC907B5E7052252078918074A0D
:100C90001143D2125140ADE770B515461C460246CD
:100CA0000B4628462146FFF7DFFD70BDFFFFFF7FA3
:100CB0001F22030C02D10F22000402D0030E03D026
:100CC00004E00020014670470002083A030F01D1FA
:100CD0000001121F830F01D18000921E002801DB4A
:100CE0004000521E120551184205C012411810460C
:100CF0007047C10FC90700D040420122920711433B
:100D0000D6E701218907D3E7F0B58B4C0F092546BB
:100D100089B0BD437BD01D092646AE43FAD00E46AE
:100D20005E402740F60F3E43254071D0240121420A
:100D3000FBD0FF24AD19A4042D1B039501252D051F
:100D4000DB02DB0AC9022B43C90A29431E01090140
:100D5000040F130F050121431701880B82039143F0
:100D60002D098C46A90B1E438A039543B30B9A03A6
:100D700096433F09BA0B9403A74302962E467E433F
:100D80000497B6464E19D7190C4601965443059759
:100D90007E43371B7646BF1B3601B646BE0B36195F
:100DA00000967646BC043719009C01D3641C00945D
:100DB0006400002F01D001263443029E049F754336
:100DC00066467E430496760034196E00341900940A
:100DD000029C019E1C196643751BAE46069465462F
:100DE0004519059C05956C43594375460891691A48
:100DF0000191049E01465143A41B0491611A009C79
:100E00000791E10605D061090122114302E072E079
:100E10006EE06109089D00272C0A2D066918049DC3
:100E20007C412A0A2D066918019D6241AC0DAD0274
:100E30006D185441079A910D920255196141029A19
:100E4000644658435443069B059A5A43121A131B8F
:100E50009A0E9B015B187A41010B0005C3185141A2
:100E6000220A200644195A419A4200D2491C012004
:100E70004002814203D315230226F64302E01423E5
:100E80000326F6432020C51AA9401746AF40DA4092
:100E90000A4320460399D8400914731819055118BC
:100EA000039A3843D2075140AC4009D00122944004
:100EB00006D30022401C5141002C01D140084000C3
:100EC0001E4A934212D3012203989206904207DBF6
:100ED0000520400709181A480143C012414004E0A8
:100EE000032040070818C10FC907002009B0F0BD52
:100EF0000020F107FAE705180C464C4111486D42F5
:100F0000A04115D394181A465A410E4864429041A4
:100F10000ED301204A004005824209D35A00824282
:100F200006D35940C90F084AC90700201143DDE71D
:100F300000200649DAE700000000FF07FE07000076
:100F4000FFFFFF7F0000E0FF0000F07F0000F87F60
:100F50000121C9050123411842001B06D3185B0E6D
:100F60000AD0C1100722D206891840075242D14246
:100F700001D5520089187047090208D50146002A98
:100F800003D0C10FC90700207047104670474202C6
:100F900002D0002002497047072109050143F4E708
:100FA0000000F87FF0B5FF252D04C609C209FF2710
:100FB00004462E400137CB093E4348402A402B408F
:100FC0000746002A6BD0002B69D0AA4267D0AB42FB
:100FD00065D0002800DA32460125ED0529432C436F
:100FE00009022002090AD21A4B0C7F24E31A434C4F
:100FF000000A7C44E35C7D242404121914145B0071
:10100000A218884201D3521C00E0400049420C461D
:101010005C4324115C43DB016415E318040A5C4360
:10102000C502200D0C4644436419250A5D43230381
:10103000EC0C0D46654300030019EB184C42A3422B
:1010400001D35B18401CD4052018002B07D05B008F
:10105000C91804D3401C002901D1400840003F2199
:1010600089048A4209D3002A08DC1106090F04D03A
:10107000032149074018C00FC007F0BD01224100FD
:10108000120689187F2252069142F6D2052149079D
:10109000C84201D59010F0BDFF20C005F0BD002F63
:1010A00000DA32461648AA4207D2AB4205D21902EC
:1010B000090E17D0F80FC007F0BDFF2563002D06FD
:1010C000AB42F9D84900A942F6D8AB4201D1A942B6
:1010D000F2D0A94201D1002101E061004908D00508
:1010E0000843F0BD1102090EFBD0FF200243D005DA
:1010F000F0BD0A460146104654E70000A662000013
:101100000000C07F0102C21504D00123DB07194390
:10111000002A0ADB9E239A1A02D40846D040704760
:10112000FF2241001206914201D900207047C017EA
:10113000C04370471F22030C02D10F2200041CD0B1
:10114000030E01D10002083A030F01D10001121F62
:10115000830F01D18000921E002801DB4000521E47
:10116000D2055118021251181922904004D3491C7B
:10117000002801D14908490008467047C10FC90736
:1011800000D04042012292071143D3E70121890791
:10119000D0E770B5044685690068C10601D53026E0
:1011A00000E02026C00707D070BD62683046A16805
:1011B0009047206A401C20626D1EF6D570BD70B548
:1011C000044685690078C00707D170BD6268A168D0
:1011D00020209047206A401C20626D1EF6D570BD0D
:1011E00009684A0501D540B27047C905FCD500B26F
:1011F000704709684A0501D5C0B27047C905FCD5DA
:1012000080B2704770B50C460546012A05D0287893
:10121000800600D5EA69002302E0012305E05B1C9B
:10122000934202D2E05C0028F9D1A869E618C01AFE
:10123000A861286AC01828622846FFF7AAFF04E0C0
:101240006A682078A968641C9047B442F8D328469D
:10125000FFF7B5FF70BD0000F7B5002575291068D0
:10126000009914A611D0FFF7BBFF002802DA404214
:1012700011A608E0009909688A0701D50FA602E0C7
:10128000490704D50EA6012501E0FFF7B2FF009F34
:101290000024243704E000F0C0FE30313955641CCE
:1012A0000028F8D12B4632462146009800F097FAE4
:1012B000FEBD0000000000002D0000002B0000001B
:1012C0002000000011680268006A530501D508700B
:1012D00009E0D30501D5088005E0130602D5C21741
:1012E00005C100E0086001207047000001694A1C48
:1012F00002610878704700B58FB002910021059116
:10130000054901937944039111460490684600F021
:1013100025F90FB000BD0000E5FFFFFF0A6810705F
:10132000521C0A6070470000F7B50446154686B0A7
:101330002B487844002703C83E460090019111E0F5
:1013400007986A467100415A02A800F045FE411C08
:1013500007D02178890603D5E269391891420ED861
:101360003F18761C2078800602D5E069B84206DD79
:10137000AE42E5DB07987100405A0028E0D1A06931
:10138000C01BA0612046FFF704FF154878445A3877
:1013900003C800900020019116E041006A460798BA
:1013A000415A02A800F018FE0590401C0AD0002502
:1013B00005E0626802A8A168405D90476D1C059831
:1013C0008542F6D30498401CB0420490E5DB206AC5
:1013D000C01920622046FFF7F2FE09B0F0BD000000
:1013E000A65F0000F7B5D21D0025D20815A6D200D1
:1013F000F52905CA11D0002A05DA002140429141A1
:1014000011A60A4608E0009909688B0701D50FA6C6
:1014100002E0490701D50EA601251146009F0024D0
:10142000243704E000F09EF930323A55641C02463D
:101430000A43F7D12B4632462146009800F0CFF9F7
:10144000FEBD0000000000002D0000002B00000089
:101450002000000070B504460021243408E0550740
:10146000D2086D0F303565545D072A43DB08491CEF
:1014700015461D43F3D10468002310A2250708D5A3
:1014800020252C400C4304D0C46901230CA2641E07
:10149000C46100F0A4F970BD10B50446214610687F
:1014A000FFF7A7FE002302462046FFF7D3FF10BD3B
:1014B000D21DD108C9000CC9CCE700000000000013
:1014C00030000000F8B50F460188090502D5224C0E
:1014D0007C4402E0204C7C440E3405460021243537
:1014E00008E016071209360FA65D6E541E07324338
:1014F0001B09491C16461E43F3D1224604780023DB
:10150000240705D5702F06D0002901D002231132FF
:1015100000F065F9F8BD01231032F9E770B5044613
:101520000D4621461068FFF764FE00230246294657
:101530002046FFF7C7FF70BDD21DD308DB000CCBE0
:10154000C0E730B4036820241268234303600823F3
:10155000C36130BC0023B5E7105E0000F3B504465C
:10156000002081B020622046E1688847002872D0C0
:10157000252802D06268A168ABE0594F00267F445D
:101580002046E16888472028054608DB312D06D231
:10159000781920380078002801D00643F0E7B0071A
:1015A00001D5042086430020E0610746A0612A2D72
:1015B0000AD0284605F0AEFC002827D0B800001954
:1015C000303D0090856119E00298BA00121902C8F6
:1015D000916102902046E1688847012F054617D1A6
:1015E000E06900281FDA202086431CE000980A21C9
:1015F0008069484300994019303888612046E16885
:101600008847054605F086FC0028EFD1012F0AD057
:101610002E2D08D12046E168884705462020064344
:101620007F1C022FC3DBA069002803DA4042A061BF
:1016300001200643F00701D0102086436C2D0BD00B
:10164000682D09D04C2D3CD06A2D38D0742D38D05F
:101650007A2D36D016E040E0E1682F4620468847D4
:10166000B842054609D16C2F29D001208002E168DB
:10167000064320468847054604E06C2F1DD0FF2016
:1016800001300643002D28D028464138192803D8B8
:101690000120C00206432035204626602946029AD2
:1016A0001646FEF759FD002810D001280BD0F61D74
:1016B000F008C0000830029055E74020E1E78020A4
:1016C000D5E70020D3E7361D02964CE7626828462E
:1016D000A1689047206A401C44E7206AFEBD0000D4
:1016E0008A5D0000C10D10B50906090E2ED0FF2934
:1016F00031D07E292DD319D0962916D202467539BC
:101700008A4005D0002402468A4003D3012302E028
:101710000124F8E700230222CA41511E8843002B0E
:1017200003D08018002C00D0904310BD012142024C
:1017300001D1012200E00022C00FC0070029F4D02F
:10174000002AF2D17F21C905084310BDC00FC00790
:1017500010BD0021EFE74102FAD0014810BD0000A2
:101760000000C07F0B4670B5024689078008084319
:1017700019469D08141AA9412509080705430809B7
:101780002C194841250A01060D43010A2C19414133
:10179000200C0D0428430D0C00194D410021401967
:1017A0004D41C00869070843E908840F8D002543AF
:1017B000840024184D4124196D41121BAB4107E0F0
:1017C0000925ED432C11521963410024401C61414D
:1017D0001C460A250026551BB441F1D270BDFFB549
:1017E00004460D4681B0243000902168880604D557
:1017F0001022E0699143216000E00120A84201DD50
:10180000471B00E000270498A1697A191018081AEC
:10181000A0612078C00602D42046FFF7BAFC00265B
:1018200008E003986268A168805D9047206A401CC8
:10183000761C206204988642F3DB2078C0060AD525
:101840002046FFF7A6FC06E06268A16830209047BA
:10185000206A401C206238467F1E0028F4DC07E026
:1018600000986268A168405D9047206A401C206231
:1018700028466D1E0028F3DC2046FFF7A0FC2078E8
:10188000000602D5022005B0F0BD0120FBE70000F4
:10189000FFB50C461E468FB003CA089009914F0051
:1018A0007D0D00D16D1E002108460020C046032199
:1018B000099A89050840002A03DA82008018400846
:1018C0000840800D01280A9002DD0020C0430A90E4
:1018D000089807430DD0F048F049281848430714EA
:1018E000189800281DD07542291E1DDD0A98424215
:1018F0001BE01898012802D00020302104E00020CD
:10190000F24305E02154401CB042FBDB304600228C
:10191000189B002121540F998B600A60486013B016
:10192000F0BDBD1B6D1CDFE70A9A002900DA694291
:101930000BA800F0F5FB0BAB07CB03AB07C3089973
:10194000099800F059FC6B4607C30146D4480918B2
:10195000002D00910BDDD24903980A9A49424018A4
:10196000002303A90390684600F0B6FE08E003993F
:101970000A9A0023081803A90390684600F056FE4F
:101980006B4607C30004000C03D00020C04341088D
:1019900000E01046189A002A03D000220092154653
:1019A0001EE0751E05D4FFF7DDFE303262556D1E58
:1019B000F9D501220843079602D000227F1C04E0DB
:1019C0002078302801D100227F1E002A069787D078
:1019D0001EE0112D07DAFFF7C5FE303262556D1C8F
:1019E00002460A43F5D1084303D00098002819D0D5
:1019F0000EE00021681E05E0235C625C6354225403
:101A0000401E491C8142F7DBA81B401E079506902B
:101A1000079A18990020A0540F98079B069A816096
:101A20000CC07CE711260020189059E7D21DF0B5B4
:101A30000D460446D10893B0C90003C90C900D911E
:101A400005F052FA02460D98C00F01D02D2007E094
:101A50002068810701D52B2002E04007C00F40011C
:101A6000032A0F9001D0072A05DB034629462046AA
:101A700000F012FB0EE12078800601D5E76900E056
:101A800006272846652D04D0662814D0672D69D115
:101A90002DE00020112F009001DB112300E07B1CC2
:101AA0000CAA03A910A8FFF7F3FE119900261098BD
:101AB0007D1C0E9142E001203B460CAAC0070B9012
:101AC0000120009003A910A8FFF7E2FE119D1298D3
:101AD0001099002600280E9501D1781C0D18781B4E
:101AE00002D446427D1C761EE81B00903AE0012F8E
:101AF00000DA01270020112F009001DD112300E002
:101B00003B460CAA03A910A8FFF7C2FE11993D4657
:101B1000109800260E91217809070BD40E99A9423E
:101B200000DA0D4603A9012D04DD4A19203AD27FBF
:101B3000302A06D0B84201DA011D04DA01210091F1
:101B40000FE06D1EEFE7002802DC86192D1A03E076
:101B5000411CA94200DD0D46801B401C0090012065
:101B6000C0070B902078000705D40098A84202DB3C
:101B70000020C043009069460020C8720B980121E4
:101B800002AF0337C907884225D0022010902B20CE
:101B900011900B9800280BDA40420B902D201190E9
:101BA00006E00B9800F039FA30317F1E0B90397047
:101BB0001099481E00291090F3DC0B980028F0D1F2
:101BC00011987F1E38702088000501D5452000E05F
:101BD00065207F1E387001A8C01BC01D0B900F9898
:101BE000002800D0012041190098C01709180B984F
:101BF0000818A169081A401EA0612078C00602D406
:101C00002046FFF7C6FA0F98002805D06268A16841
:101C10009047206A401C20622078C00625D52046C7
:101C2000FFF7B7FA21E0002E07DB0E98B04204DD83
:101C300003A86268805DA16802E06268A168302044
:101C40009047206A761C401C20620098401E0028A5
:101C500000900AD100F01CFAC06862680168405C1C
:101C6000A1689047206A401C206228466D1E00280B
:101C7000D9DC07E062683878A1687F1C9047206A49
:101C8000401C20620B99481E00290B90F2DC204674
:101C9000FFF795FA032042E601FCFFFF104D00001C
:101CA000E1DFFFFFD21DF0B504460D46D0088DB030
:101CB000C000466807683146384605F015F9024607
:101CC000F00F01D02D2307E02068810701D52B23D9
:101CD00002E04007C00F43016846002B037001D0AB
:101CE000012000E00020032A0A9001D0072A04DB2B
:101CF0002946204600F0D0F92DE12078800601D455
:101D00000D2500E0E5697000400D0D2D01904BDAC6
:101D1000300D00210B9008460020C04603218905A4
:101D20000840002E05DA82008018C20F10184010FB
:101D300008408015012801DD0020C043A9000023D0
:101D4000182906D39C460A460123183A1B07D3409C
:101D500003E001221205CA4094460C31202902D327
:101D60003A46203900E032468A40002802DD002A47
:101D700006D119E0002817D10121C9078A4213D3DF
:101D8000194663467F185E41002806D10120C0072E
:101D9000824202D1084687439E430B98310D81420F
:101DA00002D00198401C01902088000502D571499D
:101DB000794402E06F49794419396B460A98302218
:101DC0001A540A980A7C401C1A54401C0A90019824
:101DD000002801DC302000E031201872019A012037
:101DE000002A02D0644BD21804E072003A4302D0B9
:101DF000614A521C0192002D02DC2278120703D5A1
:101E00006A462E20507202200022864694460CE03C
:101E100032033601120F6D1E8B5C02AA1354624608
:101E2000521C401C9446052A01DA002DF0DC0022E9
:101E300002AE08E03B0F3F01CB5C521C6D1E3354D9
:101E4000401C082A01DA002DF4DC23689A0601D52B
:101E500011E0401E704504DD3218203AD27F302A4E
:101E6000F7D0002807DD3218203AD27F2E2A02D17F
:101E70001A0700D4401E002D03DD3E223254401CC0
:101E80006D1E497C31540199401C002906DA2D2130
:101E9000471C315401984042019003E02B21471C1C
:101EA000315401987D21C900884206DBFEF742FAD1
:101EB0003030F0557F1C019101E0642808DB019867
:101EC0006421FEF737FA3030F0557F1C019101E0B4
:101ED0000A2806DB01980A21FEF72CFA3030F0556B
:101EE0007F1C01980A21FEF725FA3031F1550A9836
:101EF000A1697F1C7A191018081AA0612078C00601
:101F000002D42046FFF745F9216A6E460A98081860
:101F1000206204E062683078A168761C90470A98D5
:101F2000401E0A90401CF5D12078C00602D52046FC
:101F3000FFF72FF902AE09E03078761C3E280DD06D
:101F40006268A1689047206A401C20627F1EF3D21D
:101F50002046FFF734F90DB00320F0BD206A401988
:101F6000206203E06268A168302090476D1EEDD3C7
:101F7000F8E700007C55000001FCFFFF10B5436945
:101F8000002B02D0C046C04601E0FFF73BF901201C
:101F900010BD1278014624310A7000224A700122D5
:101FA000ECE711680022D243E8E710B54369002B43
:101FB00002D0C046C04601E0FFF7B6F9012010BDCF
:101FC00012880146243182840022C2840122ECE777
:101FD00011680022D243E8E7F8B516460C460546DC
:101FE00000F04EF80368FF200230C05C012807D0E3
:101FF000FF2C0FD8185D00280CD001202C70F8BDE4
:10200000FF333246214608331868C7182846002394
:10201000B847F8BD0020C043F8BD01468008081A43
:1020200002091018020A1018020C1018C0088200C9
:1020300012185200891A01E0401C0A390A29FBD201
:102040007047754600F0A0FBAE4605006946534652
:10205000C008C000854618B020B5FEF719F960BC6D
:10206000B64600260027C0C5C0C5C0C5C0C5C0C58E
:10207000C0C5C0C5C0C5403D490849008D46704730
:1020800010B500F005F8001D10BD00BF394F00006D
:102090000048704730000020F8B51F460446012371
:1020A0000068DB02032601461840072A05DB0028EA
:1020B00001D017A506E017A504E0002801D016A559
:1020C00000E016A5102081432160A069C01E002FEA
:1020D000A06101D0401EA0612046FFF75AF8002FF2
:1020E00009D038466268A1689047206A401C206287
:1020F000C01C206206E0206AFAE762682878A168BE
:102100006D1C9047761EF8D22046FFF758F8F8BDB0
:102110004E414E006E616E00494E4600696E66008B
:10212000F7B516468AB0334878446C4603467C338C
:10213000C06F5A689B680DC42E487844763003AC53
:102140000DC80DC43720C001081837211B30FEF719
:10215000F1F805460C46803D1B3C02D56442012047
:1021600000E000200027099010E0E0070CD00C20D0
:1021700020497843794432464C3941186846012356
:1021800000F054FA6B4607C364107F1C002CECD19E
:10219000184F7F442E3F16E0E80712D02001C019E7
:1021A0000EC80691089307920068F04201D1981971
:1021B00008903246012306A903A800F037FA03ABC2
:1021C00007C36D10641C002DE6D10998002806D0C5
:1021D00032466946012303A800F07EFA05E0012398
:1021E0003246694603A800F021FA0A9B07C30DB0E6
:1021F000F0BD000018520000034640000A4610B52A
:10220000400D0BD00121C9070F24A40200191C03A3
:1022100064082143540D2143D20207E0002101202C
:10222000F2E7D40F490021435200401E0029F8DA9A
:10223000DB0FDB07184310BDFFB50D46144685B014
:102240004868516804F038FE00910190A868A168C0
:1022500004F032FE02910390A868616804F02CFE3D
:10226000029A12188242029201D2012000E000205C
:10227000019A0B18D2180028019202D08A4202D982
:1022800003E08A4201D2012000E0002000990818F2
:1022900000906868A16804F00FFE029A121882424A
:1022A000029201D2012000E00020019A0B18D218FE
:1022B0000028019202D08A4202D903E08A4201D268
:1022C000012000E00020009908180090286821688B
:1022D00040004900400849084018FA49471814E0EE
:1022E00001994000C90F08430090019802994000ED
:1022F000C90F08430190029803994000C90F084391
:102300000290039840007F1E039000980028E7DAAF
:102310000898002801D0EC4E00E00026B74201DA10
:10232000012000E00020002804902AD0F71BF806C6
:10233000C00E15D0029B2021091A039A8B401A4324
:102340000392029A019BC2408B401A430292019A67
:10235000009BC2408B4000991A430192C1400091FA
:102360007B110DD06F460320C11A03D500218200D6
:10237000B95003E08A008100BA587A50401EF3D564
:10238000374603980299002800D00120014308989D
:102390000291002808460CD0002800D001200199A5
:1023A000019A490508430121D20AC902D2020192C9
:1023B00000E001210E9B0122D207012B02D0002B4D
:1023C00003D013E0002807D120E0904204D89042C7
:1023D0000CD1019B0B4209D0019B5918019105D1E9
:1023E0000099491C009101D17F1C009200280DD05A
:1023F000102108460020C0460498002806D00F98F7
:10240000002803D0082108460020C046286821681B
:10241000019B009A4840C10F0598C90739430EC077
:1024200009B0F0BDFFB587B0099A089808995368BC
:10243000926840688968964600220393174694463E
:10244000089A12685300099A5B08126852005208F1
:102450009A1A9E4BD4180A9A002A01D0352200E01D
:10246000402206920022012315460492DB070593C1
:1024700024E0002D05D175460346039E4D1BB34154
:1024800009D375466646039B491B049D9841059BED
:102490007519AC465F4163463B4308D0059B049EDB
:1024A000DD0776082E435B080496059301E0521E73
:1024B000641EC50FED0749184041521C069B9A4205
:1024C000D7DB002D04D17546039A6B1A824101D2E5
:1024D00003200CE0039A0B466B404240134303D0A9
:1024E000014303D0012002E0022000E00020614609
:1024F00001910021009702910A99002905D06146B7
:1025000040020143704B019102E0800700230290DA
:102510009C4201DA012000E0002007003AD01A1B9B
:10252000D006C00E15D0029D2021019C091AC5407D
:102530008C402543029C8C4000D001242543019C03
:102540000295009DC4408D4000992C430194C140E8
:10255000009154111DD06D460221002202290CD198
:102560000320001B07E0002804DB8600AE59002E84
:1025700000D00122401C0328F5DB081B02D588008F
:102580002A5004E08000285810438A00A850491EB1
:10259000E3D51C460A98002802980CD0002800D0E9
:1025A00001200199019A490508430121D20AC90273
:1025B000D202019200E00121109B0122D207012BDF
:1025C00002D0002B03D013E0002807D11FE0904277
:1025D00004D890420CD1019B0B4209D0019B5918A1
:1025E000019105D10099491C009101D1641C009210
:1025F00000280CD0102108460020C046002F06D02D
:102600001198002803D0082108460020C0460898E9
:102610000999019A009B006809684840C10F079812
:10262000C907214382600AC00BB0F0BD00B585B078
:10263000019300920A460146002302A8FFF7FCFD21
:1026400002A807C805B000BDFFB50A461F4685B001
:102650000799019301230091014602A8FFF7ECFDC1
:1026600002990398049ECA0F4900D20700920F22D4
:10267000490892028C1A0021002800DB0C46450014
:1026800013486D08844214D3079A002A04DA441EC2
:102690000026104DF64302E004460D460E4610217A
:1026A00008460020C046002F03D004210846002021
:1026B000C0462005E90A0843009908436905F20A63
:1026C0001143ADE602C0FFFF013C0000FF3F0000E8
:1026D000FF070000FFFFFF7F00B585B00193009268
:1026E0000A460146002302A8FFF79CFE02A807C87D
:1026F000A8E7FFB50A461F4685B007990193012355
:102700000091014602A8FFF78DFE02990398049EEE
:10271000CA0F4900D20700920F22490892028C1A70
:102720000021002800DB0C46450011486D0884425A
:1027300014D3079A002A04DA441E00260D4DF643EE
:1027400002E004460D460E46102108460020C04611
:10275000002F03D0042108460020C0462005E90AC6
:102760000843009908436905F20A114358E600003E
:10277000FF070000FFFFFF7F10B50446C046C046BC
:102780002046FDF775FD10BD004870471000002081
:10279000024670B50A4392072AD11E4DEE0104C8C5
:1027A00008C9541B9443344017D0D0B2D9B2401A50
:1027B0002106014310D190B299B2401A210401437D
:1027C0000AD110021902000A090A401A2102014323
:1027D00002D1100E190E401A70BD9A42DFD010BA05
:1027E00019BA884201D9012070BD0020C04370BDD4
:1027F00002780B78401C491C002A09D09A4207D164
:1028000002780B78401C491C002A01D09A42EFD074
:10281000D01A70BD0101010101491820ABBEFEE7CD
:10282000260002007047000080B5024800F0EDFB72
:1028300080BDC0467400002080B584B002900020A6
:1028400000900298006803F02AF800286BD1FFE797
:10285000029800688068384908420DD0FFE7029965
:10286000886D102210438865029AD16D01200143C2
:10287000D16503A908705AE00298006802F0DEFFF3
:102880002E4802F0F5FF0002002811D5FFE72C4882
:1028900000682C49FDF744FD401C0090FFE70098BC
:1028A000002804D0FFE70098401E0090F7E7FFE7FC
:1028B0000298407E012835D0FFE701F099F9019098
:1028C000FFE7029800680068C007002829D1FFE7E9
:1028D0000298006802F0E3FF002805D1FFE70298A4
:1028E000006802F0ABFFFFE701F082F90199401A9E
:1028F000032815D3FFE7029800680068C007002886
:102900000DD1FFE70299886D102210438865029A65
:10291000D16D01200143D16503A9087007E0FFE7ED
:10292000CFE7FFE7FFE703A900200870FFE703A850
:10293000007804B080BDC046170000800827014021
:1029400000000020400D030080B582B001F050F976
:10295000009000992E4848432E49884256D8FFE7F8
:1029600000980521FDF7DCFC01460320014001A889
:102970000170007804F01CF927480068092812D873
:10298000FFE725480068011F214848432349884242
:1029900009D8FFE701A80078032804D1FFE7002049
:1029A00004F070FA31E001A801784648405C000666
:1029B000002804D5FFE7402004F064FA24E001A8D1
:1029C0000078012813D1FFE7134800680A280ED3C6
:1029D000FFE701A801783B48401AC1780F20014069
:1029E0000F48405C8021084304F04CFA0BE001A83A
:1029F00001783448401AC1780F2001400848405CF3
:102A000004F040FAFFE7FFE7FFE7FFE702B080BD11
:102A1000CDCCCCCC33333333B80100203233333315
:102A20007474000880B584B00390039824498842E8
:102A300015D3FFE701A900200870FFE701A800787F
:102A400007280BDCFFE701A802781E490F208854F5
:102A5000FFE70198401C01A90870EFE72EE00398FA
:102A60000290694600200870FFE768460078032856
:102A700023DCFFE7029800280BD1FFE768460078C7
:102A8000002806D0FFE7684602780E49FF208854E8
:102A900008E002980A21FDF743FC684602780948DD
:102AA0008154FFE702980A21FDF73AFC0290FFE704
:102AB0000098401C69460870D7E7FFE704B080BD66
:102AC000102700000400002081B0EFF3108072B6E0
:102AD0000090FFE7FEE781B0009001B0704781B041
:102AE000009001B0704781B0009001B0704781B094
:102AF000009001B07047000080B59CB01A90199109
:102B000018A90020087016901A9800690121C907B9
:102B1000884206D0FFE71A980069FB49884201D134
:102B2000FFE700E0FFE7FFE71A985421405C012827
:102B300004D1FFE71BA90220087008E21A99542269
:102B400001208854FFE7FFE71A98006802F0C1FEF1
:102B5000002800D0E8E119984068022800D193E1EC
:102B60001A9800690121C907884206D0FFE71A9820
:102B70000069F949884207D1FFE71A980068199956
:102B8000096802F0BBFE1AE11A98016E19984368B1
:102B90001F2213400F229A40914315910068400371
:102BA000002808D1FFE7199800681F21890608400E
:102BB000800E1490E7E019980078C007002803D031
:102BC000FFE700201390DBE01998007880070028C9
:102BD00003D5FFE701201290CFE019980078400755
:102BE000002803D5FFE702201190C3E01998007870
:102BF0000007002803D5FFE703201090B7E01998DD
:102C00000078C006002803D5FFE704200F90ABE052
:102C1000199800788006002803D5FFE705200E905C
:102C20009FE0199800784006002803D5FFE70620AA
:102C30000D9093E0199800780006002803D5FFE76F
:102C400007200C9087E019984078C007002803D02F
:102C5000FFE708200B907BE0199840788007002858
:102C600003D5FFE709200A906FE0199840784007E4
:102C7000002803D5FFE70A20099063E019984078FF
:102C80000007002803D5FFE70B20089057E01998AC
:102C90004078C006002803D5FFE70C2007904BE0E2
:102CA000199840788006002803D5FFE70D2006908C
:102CB0003FE0199840784006002803D5FFE70E2032
:102CC000059033E0199840780006002803D5FFE707
:102CD0000F20049027E019988078C007002803D0BF
:102CE000FFE7102003901BE01998807880070028E8
:102CF00003D5FFE7112002900FE019980168012029
:102D0000820411401220002300939142019001D0CF
:102D10000098019001980290FFE702980390FFE766
:102D200003980490FFE704980590FFE70598069044
:102D3000FFE706980790FFE707980890FFE70898D5
:102D40000990FFE709980A90FFE70A980B90FFE7C0
:102D50000B980C90FFE70C980D90FFE70D980E90E4
:102D6000FFE70E980F90FFE70F981090FFE710987D
:102D70001190FFE711981290FFE712981390FFE768
:102D800013981490FFE715981499199A52681F2305
:102D90001A40914008431A990866199840688008BB
:102DA000401C1A99C969884208D8FFE71A98006838
:102DB000199A5168126802F0BFFDFFE7FFE71A9801
:102DC0000068199A1168926802F0DCFD1998C078C1
:102DD0000006002857D5FFE7604802F049FD17902C
:102DE000199800685E49884221D1FFE717A88078CA
:102DF000000600281BD4FFE717990120C0050143F6
:102E0000564802F0D3FD594800685949FDF788FA41
:102E100001460C2048430C301690FFE71698002816
:102E200004D0FFE71698401E1690F7E72AE019989D
:102E300000684C4988420ED1FFE717A8C078C00748
:102E4000002808D1FFE717990120000601434348F5
:102E500002F0ACFD15E019980068434988420ED194
:102E6000FFE717A880784006002808D4FFE71799E5
:102E7000012080050143394802F098FD00E0FFE79A
:102E8000FFE7FFE7FFE74EE01A9800690121C90755
:102E9000884206D0FFE71A9800692F49884207D177
:102EA000FFE71A9800681999096802F035FDFFE7F5
:102EB0001998C0780006002834D5FFE7274802F0AB
:102EC000D7FC1790199800682549884208D1FFE778
:102ED00017990120C0058143204802F067FD20E0DA
:102EE000199800681F49884208D1FFE71799012007
:102EF00000068143194802F059FD11E01998006855
:102F0000194988420AD101E0040000801799012084
:102F100080058143114802F049FD00E0FFE7FFE72B
:102F2000FFE7FFE7FFE708E01A99886D20221043CA
:102F3000886518A901200870FFE7FFE71A99542255
:102F400000208854FFE718981BA90870FFE71BA80A
:102F500000781CB080BDC0460400008008270140F6
:102F6000001000B0004000B8002000B400000020B5
:102F7000400D030080B584B00390164800F038F887
:102F80008005002824D5FFE7124800F037F80146F5
:102F900002A80180008803F085FE0F4908600F49F0
:102FA0000868401C08600A2804D3FFE70D49012087
:102FB00008700CE0094800680521FDF7B1F901919E
:102FC0000198810006484058FFF72CFDFFE7FFE716
:102FD00004B080BD74000020BC010020B8010020B6
:102FE000387400087000002081B0009001B0704774
:102FF00081B000900098806D01B0704781B0009062
:1030000000980068006C01B0704780B586B00590EC
:1030100000200490059800680068039005980068F7
:103020004068029003A80078800700281BD5FFE7BE
:1030300002A800788007002815D5FFE70598806D65
:10304000C006002807D4FFE70599886D0122D20247
:1030500010438865FFE70598FFF741FD0598016873
:1030600002200860FFE703A800784007002806D583
:10307000FFE702980421084004280CD0FFE703A8CA
:1030800000780007002851D5FFE702A80078000764
:1030900000284BD5FFE70598806DC006002807D4AF
:1030A000FFE70599886D0122520210438865FFE70A
:1030B0000598006802F016FC00282FD0FFE705985D
:1030C000807E00282AD1FFE7059800680068000785
:1030D000002822D5FFE70598006802F0FAFB0028D7
:1030E0000FD1FFE70598016848680C2290434860BB
:1030F0000598806D01210843090288430599886578
:103100000AE00599886D2022104388650599C86DED
:1031100001221043C865FFE7FFE7FFE70598FFF7C7
:1031200029FF059801680C200860FFE703A80078D4
:103130000006002814D5FFE702A800780006002842
:103140000ED5FFE70599886D0122120410438865AA
:10315000059800F037FA0598016880200860FFE7BD
:1031600003A84078C007002816D0FFE702A84078DF
:10317000C007002810D0FFE70599886D0122019251
:103180005204104388650598FFF7ADFC0198059936
:10319000096800020860FFE703A84078800700285C
:1031A00016D5FFE702A840788007002810D5FFE772
:1031B0000599886D01220092920410438865059854
:1031C000FFF795FC00980599096840020860FFE741
:1031D00003A80078C006002831D5FFE702A80078D0
:1031E000C00600282BD5FFE70598006B002803D107
:1031F000FFE7012004900AE00598006802F061FBF7
:10320000002803D0FFE701200490FFE7FFE70498C0
:1032100001280FD1FFE70599886D01229202104322
:1032200088650599C86D02221043C8650598FFF7A7
:10323000DBFEFFE70598016810200860FFE703A8A0
:103240004078800600280FD5FFE702A84078800666
:10325000002809D5FFE70598FFF73DFC05980168B0
:10326000012040030860FFE706B080BD80B58AB04A
:10327000089007A900200870069005900390089810
:10328000002804D1FFE709A9012008708AE1089805
:103290003C21405C012801D1FFE7FFE70898006965
:1032A000002809D0FFE708980069012149058842F4
:1032B00001D1FFE7FFE7FFE70898806D00280AD1FA
:1032C000FFE7089800F082F908990020C86508997E
:1032D00054228854FFE70898006802F0E8FA0028B2
:1032E00016D1FFE70898006802F0B4FAAF4800680A
:1032F000AF49FDF715F84000801C0390FFE70398E5
:10330000002804D0FFE70398401E0390F7E7FFE78B
:103310000898006802F0CBFA00280DD1FFE7089961
:10332000886D102210438865089AD16D01200143F1
:10333000D16507A90870FFE70898006802F0C9FA8C
:1033400004900898806DC006002800D51DE10498FF
:10335000002800D019E10898806D0221084301215E
:1033600009028843089988650898006802F097FA6E
:10337000002800D0B0E008988168027E92031143D3
:10338000427ED2031143827E52031143026B531ECD
:103390009A4112031143C26811430291C07C000696
:1033A000002807D5FFE7089800690121C90788436D
:1033B000019003E0012040050190FFE70299019888
:1033C000014308982C22805C400001430698084382
:1033D000069008982021405C012817D1FFE7089843
:1033E000807E002806D1FFE70698012109040843E2
:1033F00006900AE00899886D202210438865089994
:10340000C86D01221043C865FFE7FFE70898406ACE
:1034100000280BD0FFE70898416A0722920111406B
:10342000806A0143069808430690FFE70898006801
:10343000C068604908400699084308990968C8604F
:1034400008984168032292071140C06C0143059817
:103450000843059008983C21405C012811D1FFE702
:10346000089948680322920710400A6C10434A6C7E
:103470001043896C084305990843012108430590CE
:10348000FFE70898006800694B4908400599084320
:1034900008990968086108984068032189078842EB
:1034A00019D0FFE70898406801218907884212D0A7
:1034B000FFE7089840680121C90788420BD0FFE761
:1034C0003E4908680F2293049843089A52681A40AC
:1034D00080180860FFE7FFE7089908684A6B002139
:1034E00002F072FA089908688A6B354902F06CFAA2
:1034F00008980069002808D1FFE708980168886AE1
:103500000F22D2431043886218E008980069012115
:103510004905884211D1FFE708980068806A089938
:10352000C8698000021F1C2002400F20C043904049
:103530000A6E104309688862FFE7FFE70898006891
:10354000002102F09EF90899496B88420CD1FFE7EF
:1035500008990020C8650898806D01210843022160
:103560008843089988650FE00898806D102108430A
:103570000221884308998865089AD16D012001438A
:10358000D16507A90870FFE708E00899886D102247
:103590001043886507A901200870FFE7079809A96B
:1035A0000870FFE709A800780AB080BD000000207D
:1035B000400D03000102FEFF02FCFF1F082701402F
:1035C00004FFFF0781B0009001B0704780B592B052
:1035D00011900020039010900F900E900D900C9081
:1035E0000B900A9009900890079006901198006837
:1035F000204988423BD1FFE70120810306918007E3
:103600000A9006A800F0D4FB002803D0FFE7FFF7DC
:103610005BFAFFE7FFE718480268012109050A4342
:1036200002600068084005900598FFE7FFE713482F
:10363000026801210A43026000680840049004986F
:10364000FFE701200C9003200D90002001900E90C8
:10365000052000070CA900F04DF9019A0C200290FA
:10366000114600F058FB029800F04AFBFFE712B049
:1036700080BDC0460024014040100240341002408A
:1036800080B584B002900298006802F022F9002808
:1036900063D1FFE7FFE702985421405C012804D181
:1036A000FFE703A9022008705FE00299542201207D
:1036B0008854FFE7FFE70298FFF7BEF8014601A82C
:1036C00001700078002840D1FFE70298806D012149
:1036D0000902084327490840029988650299002099
:1036E000C865029801681C200860FFE7029954220F
:1036F00000208854FFE70298016848681C22904324
:10370000486002984069082807D1FFE702980168DD
:10371000486808221043486006E00298016848683B
:10372000042210434860FFE70298006B002807D18D
:10373000FFE7029801684868102210434860FFE7DD
:103740000298006802F010F906E0FFE7029954229F
:1037500000208854FFE7FFE703E001A9022008707A
:10376000FFE7019803A90870FFE703A8007804B0F9
:1037700080BDC046FEF1FFFF82B000900098002897
:1037800004D1FFE701A90120087051E0009825212C
:10379000405C02280DD0FFE700990420C863FFE7D2
:1037A0000099242200208854FFE701A90120087015
:1037B0003EE00098016808680E2290430860009877
:1037C000416C086801221302984308600098016860
:1037D0000868904308600098006C1C2108408240F3
:1037E00043490868104308600099C86C896C4860B8
:1037F0000098006D00280CD0FFE70098016D086864
:1038000001221202904308600099886D496D48605A
:10381000FFE70099252201208854FFE70099242220
:1038200000208854FFE7FFE701A900200870FFE7A8
:1038300001A8007802B0704780B582B00190694657
:103840000020087001982521405C022807D0FFE77E
:1038500001990420C86369460120087043E001987B
:10386000016808680E2290430860019801680868A2
:103870000122904308600198416C08681302984344
:1038800008600198006C1C210840824018490868B3
:10389000104308600199C86C896C48600198006DFC
:1038A00000280CD0FFE70198016D08680122120280
:1038B000904308600199886D496D4860FFE7019960
:1038C000252201208854FFE70199242200208854F2
:1038D000FFE70198806B002804D0FFE70198816B17
:1038E0008847FFE7FFE76846007802B080BDC04622
:1038F000040002408AB00990089100200790FFE779
:10390000089800680799C840002800D147E1089846
:103910000068079A01219140084006900698002807
:1039200000D138E10898406803210840012807D0F9
:10393000FFE7089840680321084002282CD1FFE7E0
:1039400009988068059007984000032181400598F8
:10395000884305900898C168079840008140059801
:103960000843059005980999886009984068059072
:103970000798012181400598884305900898406880
:1039800010210840010907988140059808430590D7
:10399000059809994860FFE70898406803210840A6
:1039A000032816D0FFE70998C068059007984000E3
:1039B00003218140059888430590089881680798FD
:1039C0004000814005980843059005980999C86012
:1039D000FFE70898406803210840022820D1FFE74C
:1039E00009980799C90889004018006A0590079846
:1039F0004007C00E0F218140059888430590089824
:103A0000016907984007C00E81400598084305905A
:103A100005980999079AD208920089180862FFE769
:103A200009980068059007984100032002468A40E3
:103A3000059991430591089949680140079840000C
:103A400081400598084305900598099908600898F1
:103A500080798007002800D19CE0079803218843E3
:103A600050494058059007988007C00E0F218140AB
:103A7000059888430590099805210907884203D1D4
:103A8000FFE70020049022E009984749884203D1CB
:103A9000FFE70120039017E009984449884203D1C9
:103AA000FFE7022002900CE00999414A0320052318
:103AB00000939142019001D00098019001980290EA
:103AC000FFE702980390FFE703980490FFE704994B
:103AD00007988007C00E8140059808430590059817
:103AE0000799032291432F4A885032480068059075
:103AF000069905988843059008988079C0060028A3
:103B000005D5FFE70699059808430590FFE7059856
:103B10002849086028480068059006990598884358
:103B20000590089880798006002805D5FFE706995A
:103B3000059808430590FFE705981F4908601F484E
:103B40000068059006990598884305900898807943
:103B50008007002805D5FFE70699059808430590DA
:103B6000FFE7059815490860154800680590069913
:103B700005988843059008988079C007002805D0EB
:103B8000FFE70699059808430590FFE705980C495B
:103B90000860FFE7FFE70798401C0790B0E60AB00F
:103BA0007047C046601802400004005000080050F2
:103BB000000C005000180240041802408418024013
:103BC0008018024083B0029001A80180684602700C
:103BD0000078002805D0FFE701A8008802998861D5
:103BE00004E001A8008802998862FFE703B07047EB
:103BF000054800687047C0463148027802490868A5
:103C0000801808607047C046C001002080B582B0AF
:103C100001A9002008700B49086801221202104314
:103C20000860032000F010F8002804D0FFE701A985
:103C30000120087002E000F047F8FFE701A80078D3
:103C400002B080BD0020024080B584B0039002A97C
:103C5000002008701A480078002829D0FFE7514852
:103C600000680190164801787D20C000FCF758FBE1
:103C700001460198FCF754FB00F0D0FE002812D159
:103C8000FFE70398032809D8FFE703990022D043F0
:103C900000F041F803980B49086003E002A90120F5
:103CA0000870FFE703E002A901200870FFE703E0C6
:103CB00002A901200870FFE702A8007804B080BDC7
:103CC000080000200C00002082B0FFE70B480268CB
:103CD00001210A4302600068084001900198FFE753
:103CE000FFE7B9480268012109070A43026000683A
:103CF000084000900098FFE702B070474010024073
:103D000080B582B0014601A801700021405602F042
:103D100095FE02B080BD80B584B0034603A8037051
:103D20000291019200214056029902F09DFE04B0DA
:103D300080BD000080B584B00290A44908680322C9
:103D400052029043029A10430860029801214902EE
:103D500088421ED1FFE713480168062048431249F4
:103D6000FCF7DEFA401C0190FFE7104800684005B0
:103D700000280DD5FFE70198002804D0FFE701983F
:103D8000401E019003E003A90320087005E0ECE762
:103D9000FFE703A900200870FFE703A8007804B03C
:103DA00080BDC0460000002040420F00147000405B
:103DB00080B588B0079004A90020087003A9087096
:103DC000079880788007002800D49DE002A9002091
:103DD00008707D480068C000002810D4FFE7FFE7A6
:103DE00079480268012109070A4302600068084017
:103DF00001900198FFE702A901200870FFE77349CD
:103E000008680122120210430860FFF7F1FE0590D6
:103E1000FFE76E480068C00500280CD4FFE7FFF7F5
:103E2000E7FE0599401A032804D3FFE704A90320FD
:103E3000087000E0EDE704A80078002853D1FFE700
:103E4000F5480068032109020840069006980028FA
:103E500017D0FFE7069807994969884211D0FFE714
:103E6000ED49086803221202904306900868012277
:103E700012041043086008689043086006980860C0
:103E8000FFE706A80078C007002818D0FFE7FFF773
:103E9000AFFE0590FFE7E0480068800700280DD4DA
:103EA000FFE7FFF7A5FE0599401ADF49884204D3D2
:103EB000FFE704A90320087000E0ECE7FFE704A88F
:103EC000007800280AD1FFE7D349086803221202CC
:103ED0009043079A52691043086003E0049803A9CD
:103EE0000870FFE703E0049803A90870FFE702A841
:103EF0000078012807D1FFE733490868012212073B
:103F000090430860FFE7FFE707980078C0070028A4
:103F100009D0FFE72E49086803229043079A5268A8
:103F200010430860FFE707980078800600280AD54C
:103F3000FFE727490868032212039043079A926813
:103F400010430860FFE7079840784006002818D51E
:103F5000FFE71F490868032292079043079A1269F6
:103F6000104308600798006901218907884207D13A
:103F7000FFE7184908680122120410430860FFE7B0
:103F8000FFE7079840780007002818D5FFE7104999
:103F90000868032292039043079AD268104308608E
:103FA0000798C06801218903884207D1FFE7F049DB
:103FB00008680122120410430860FFE7FFE703A826
:103FC000007808B080BDC0463C1002400070004040
:103FD000541002400C10024080B584B00290019150
:103FE0000298002804D1FFE703A9012008700CE122
:103FF00001988849096807221140884221D9FFE7C2
:104000008449086807229043019A10430860FFF72B
:10401000EFFD0090FFE77F48006807210840019905
:1040200088420DD0FFE7FFF7E3FD0099401A7E4973
:10403000884204D3FFE703A903200870E5E0EAE71C
:10404000FFE7029800788007002817D5FFE702985D
:1040500000784007002807D5FFE7C4490868072211
:10406000120310430860FFE7C04908680F221202DC
:104070009043029A926810430860FFE70298007824
:10408000C007002872D0FFE70298406801280BD1D2
:10409000FFE7BA4800688003002804D4FFE703A9BB
:1040A00001200870B1E03DE00298406802280BD181
:1040B000FFE7B24800688001002804D4FFE703A9A5
:1040C00001200870A1E02CE00298406800280BD184
:1040D000FFE7AA4800684005002804D4FFE703A9C9
:1040E0000120087091E01BE00298406803280BD182
:1040F000FFE74A4800688007002804D4FFE703A9C7
:104100000120087081E00AE0434800688007002829
:1041100004D4FFE703A90120087076E0FFE7FFE77A
:10412000FFE7FFE79149086807229043029A526827
:1041300010430860FFF75CFD0090FFE78B480068C4
:104140003821084002994968C90088420DD0FFE72C
:10415000FFF74EFD0099401A3349884204D3FFE728
:1041600003A90320087050E0E8E7FFE70198294918
:10417000096807221140884221D2FFE725490868D3
:1041800007229043019A10430860FFF731FD009029
:10419000FFE72048006807210840019988420DD0B8
:1041A000FFE7FFF725FD0099401A1F49884204D315
:1041B000FFE703A90320087027E0EAE7FFE702987A
:1041C0000078400700280AD5FFE7684908680722F9
:1041D00012039043029AD26810430860FFE700F090
:1041E0003FF8624909680F22120211408A090C49FE
:1041F00089581F221140C8400E49086009480068CC
:10420000FFF722FD03A90870FFE703A8007804B0B8
:1042100080BDC046002002405C1002406010024099
:10422000D87300080C0000208913000001480068C2
:104230007047C0460000002080B582B0FFF7F6FF4F
:10424000019001F0D5FB01460198090B8A00034952
:1042500089581F221140C84002B080BD1874000860
:1042600080B588B0414800688006400F00280FD113
:10427000FFE7424800680721C9020840C10A01203F
:104280008840039003993C48FCF74AF8029069E0A3
:104290003648006838210840082803D1FFE7354830
:1042A00002905EE0314800683821084010283CD177
:1042B000FFE72F4801680322114006910068702132
:1042C00008400009401C049006980190022812D072
:1042D000FFE7019803280FD1FFE704992548FCF771
:1042E0001FF80146224800687F2212021040000A8F
:1042F000484307900EE0FFE704991F48FCF710F8C9
:1043000001461B4800687F2212021040000A484301
:104310000790FFE716480068400F401C059007987B
:104320000599FBF7FDFF02901AE01048006838215C
:104330000840202804D1FFE70120C00302900EE0CE
:104340000A48006838210840182804D1FFE77D207A
:104350000002029002E000200290FFE7FFE7FFE783
:10436000FFE7FFE7029808B080BDC0460810024092
:104370000C10024000127A000024F40000100240E9
:1043800010B588B006900698002804D1FFE707A969
:10439000012008702AE306980078C007002800D1A1
:1043A00088E0FC480068382108400490FA4800681A
:1043B0000321084003900498102804D1FFE70398D4
:1043C000032804D0FFE70498082810D1FFE7F84835
:1043D00000688003002809D5FFE706984068002898
:1043E00004D1FFE707A901200870FFE261E0FFE7C1
:1043F0000698406801210904884207D1FFE7EC498B
:10440000086801221204104308601DE00698406805
:104410000521090488420BD1FFE7E549086801221C
:1044200093041843086008681204104308600AE007
:10443000DF49086801221304984308600868920461
:1044400090430860FFE7FFE7FFE706984068002811
:1044500017D0FFE7FFF7CCFB0590FFE7D4480068D3
:10446000800300280CD4FFE7FFF7C2FB0599401A30
:10447000652804D3FFE707A903200870B6E2EDE73B
:1044800016E0FFF7B5FB0590FFE7C9480068800319
:1044900000280CD5FFE7FFF7ABFB0599401A65280C
:1044A00004D3FFE707A9032008709FE2EDE7FFE7C9
:1044B000FFE7FFE7069800788007002800D4A3E014
:1044C000B4480068382108400490B34800680321CC
:1044D000084003900498102804D1FFE703980228AD
:1044E00004D0FFE7049800283BD1FFE7B0480068FC
:1044F0004005002809D5FFE70698C068002804D1C8
:10450000FFE707A90120087070E2AA4908687F2226
:1045100012029043069A52691202104308600498EE
:10452000002811D1FFE7A24802680721C9028A4387
:10453000069B1B691A43026000680840C10A9E4836
:10454000C8409E490860FFE79D480068FFF77CFB74
:10455000002804D0FFE707A90120087046E2FFE722
:1045600051E00698C06800282FD0FFE790490868FE
:104570000722D2029043069A126910430860086825
:104580000122120210430860FFF732FB0590FFE79B
:1045900087480068400500280CD4FFE7FFF728FB98
:1045A0000599401A032804D3FFE707A903200870E0
:1045B0001CE2EDE77F4908687F2212029043069AC9
:1045C00052691202104308601CE079490868012210
:1045D000120290430860FFF70BFB0590FFE7744859
:1045E0000068400500280CD5FFE7FFF701FB05999F
:1045F000401A032804D3FFE707A903200870F5E158
:10460000EDE7FFE7FFE7FFE70698007800070028DF
:1046100056D5FFE7F748006838210840182810D120
:10462000FFE7F74800688007002809D5FFE70698EC
:104630008069002804D1FFE707A901200870D5E1AF
:104640003DE00698806900281CD0FFE7EC49086827
:10465000012210430860FFF7CBFA0590FFE7E84816
:104660000068800700280CD4FFE7FFF7C1FA05991E
:10467000401A032804D3FFE707A903200870B5E117
:10468000EDE71BE0DE490868012290430860FFF770
:10469000AFFA0590FFE7DA480068800700280CD5DC
:1046A000FFE7FFF7A5FA0599401A032804D3FFE7AF
:1046B00007A90320087099E1EDE7FFE7FFE7FFE7AF
:1046C000069800784007002800D4CAE002A900201C
:1046D0000870C848006838210840202810D1FFE73A
:1046E000CA4800688007002809D5FFE70698806857
:1046F000002804D1FFE707A90120087076E1AFE0A8
:10470000C0480068C000002810D4FFE7FFE7BD489C
:104710000268012109070A4302600068084001900D
:104720000198FFE702A901200870FFE7B64800687A
:10473000C00500281DD4FFE7B34908680122120212
:1047400010430860FFF754FA0590FFE7AE48006891
:10475000C00500280CD4FFE7FFF74AFA0599401A74
:10476000032804D3FFE707A9032008703EE1EDE723
:10477000FFE7FFE706988068012806D1FFE7A34915
:10478000086801221043086027E006988068052821
:1047900018D103E0081002400C1002409B49086841
:1047A000042210430860086801221043086013E0E7
:1047B00000100240041002400024F4000000002019
:1047C0000C000020914908680122904308600868A5
:1047D000042290430860FFE7FFE7FFE70698806840
:1047E000002818D0FFE7FFF703FA0590FFE7874896
:1047F0000068800700280DD4FFE7FFF7F9F9059955
:10480000401A8349884204D3FFE707A903200870B0
:10481000ECE0ECE717E0FFF7EBF90590FFE77B48EA
:104820000068800700280DD5FFE7FFF7E1F905993B
:10483000401A7749884204D3FFE707A9032008708C
:10484000D4E0ECE7FFE702A80078012807D1FFE7F2
:10485000E14908680122120790430860FFE7FFE77B
:10486000FFE70698C069002800D1BBE061480068F6
:1048700038210840102876D0FFE70698C069022842
:104880004ED1FFE75D490868012212069043086097
:10489000FFF7AEF90590FFE758480068800100284F
:1048A0000CD5FFE7FFF7A4F90599401A032804D3B4
:1048B000FFE707A90320087098E0EDE74E49086874
:1048C000554A1040069B1A6A5C6A22439C6A24027D
:1048D0002243DC6A22431B6B1A4310430860474B98
:1048E0001868012214062043186008681207104354
:1048F0000860FFF77DF90590FFE7404800688001F8
:1049000000280CD4FFE7FFF773F90599401A032834
:1049100004D3FFE707A90320087067E0EDE721E073
:10492000364908680122120690430860FFF760F9D3
:104930000590FFE731480068800100280CD5FFE7AB
:10494000FFF756F90599401A032804D3FFE707A992
:10495000032008704AE0EDE7274908682D4A104017
:104960000860FFE73DE00698C069012804D1FFE731
:1049700007A90120087039E01F48006803900398D8
:10498000032108400699096A884224D1FFE7039869
:10499000702108400699496A88421CD1FFE70398B4
:1049A0007F21090208400699896A0902884212D1CA
:1049B000FFE703981F21490408400699C96A884205
:1049C00009D1FFE703980721490708400699096BB9
:1049D000884204D0FFE707A90120087006E0FFE73E
:1049E000FFE7FFE707A900200870FFE707A80078A6
:1049F00008B010BD081002400C1002400010024028
:104A0000601002403C100240007000405C10024008
:104A100089130000FCFFFEEF8C80C11F80B582B0BF
:104A20000190019801F00CF902B080BD85B00390AF
:104A30000291FFE703983C21405C012804D1FFE785
:104A400004A90220087057E003993C2201208854F1
:104A5000FFE7FFE703993D2202208854039800688E
:104A6000406801900398006880680090039800688F
:104A70007C4988420BD1FFE701980F210905884343
:104A8000019002984168019808430190FFE701985E
:104A900070218843019002980168019808430190B1
:104AA0000198039909684860039800686D49884235
:104AB00006D0FFE7039800686B4988420ED1FFE7F4
:104AC00000988021884300900298816800980843EC
:104AD00000900098039909688860FFE703993D22D8
:104AE00001208854FFE703993C2200208854FFE707
:104AF00004A900200870FFE704A8007805B07047FB
:104B000080B582B000900098002804D1FFE701A989
:104B10000120087045E000983D21405C002808D144
:104B2000FFE700993C2200208854009800F03EF8EE
:104B3000FFE700993D2202208854009901C901F045
:104B4000EFF80099482201208854FFE700993E229F
:104B50000120885400993F228854009940228854AB
:104B60000099412288540099422288540099432296
:104B70008854FFE7FFE700994422012088540099F8
:104B80004522885400994622885400994722885427
:104B9000FFE700993D220120885401A900200870F8
:104BA000FFE701A8007802B080BD000082B001904C
:104BB000019800682C4988420CD1FFE7FFE70648BE
:104BC000026802210A4302600068084000900098D1
:104BD000FFE7FFE702B070473C10024083B001904E
:104BE00001983D21405C012804D0FFE702A9012083
:104BF000087032E001993D22022088540198006833
:104C00001849884206D0FFE7019800681649884293
:104C100018D1FFE7019800688068144908400090A7
:104C2000009806280DD0FFE700980121090488426A
:104C300007D0FFE701980168086801221043086067
:104C4000FFE706E001980168086801221043086048
:104C5000FFE702A900200870FFE702A8007803B070
:104C60007047C046002C01400004004007000100CE
:104C700080B586B00490039102A900200870FFE778
:104C800004983C21405C012804D1FFE705A90220DB
:104C90000870AEE004993C2201208854FFE7FFE74A
:104CA00004993D220220885404980068806801908D
:104CB00001985249084001900198FF210902884358
:104CC0000190019804990968886003980068009031
:104CD000002875D0FFE70098102871D0FFE70098F2
:104CE00020286DD0FFE70098302869D0FFE70098B2
:104CF000402858D0FFE7009850283AD0FFE70098A6
:104D0000602843D0FFE7009870280DD0FFE7009897
:104D100001210903884206D0FFE7009801214903D9
:104D2000884216D053E056E004980068039B9968C7
:104D30005A68DB6801F068F80498006880680190A0
:104D400001987721084301900198049909688860C7
:104D500041E004980068039B99685A68DB6801F099
:104D600053F8049801688868012292031043886010
:104D700031E004980068039A5168D26801F078F82D
:104D800004980068502101F05BF824E00498006862
:104D9000039A5168D26801F093F804980068602182
:104DA00001F04EF817E004980068039A5168D26841
:104DB00001F05EF804980068402101F041F80AE033
:104DC000049800680399096801F03AF803E002A921
:104DD00001200870FFE704993D2201208854FFE775
:104DE00004993C2200208854FFE7029805A9087026
:104DF000FFE705A8007806B080BDC04688FFCEFF5B
:104E000083B00190FFE701988421405C012804D120
:104E1000FFE702A9022008702BE0019984220120FB
:104E20008854FFE7FFE701998822242088500198E1
:104E300000680068009001980368186801218843A1
:104E4000186000984907884300900199002048663F
:104E50000098019909680860019920208850FFE7AF
:104E60000199842200208854FFE702A900200870DD
:104E7000FFE702A8007803B0704782B0019068464F
:104E8000018002B0704781B0009001B0704780B5DA
:104E900086B004900391FFE704988421405C0128C8
:104EA00004D1FFE705A90220087034E004998422A8
:104EB00001208854FFE7FFE704998822019224200B
:104EC0008850049800680068029004980168086897
:104ED0000122904308600498006880680721490611
:104EE000884303990843049909688860049801F08D
:104EF00011F8019A02980499096808600499202021
:104F00008850FFE70499842200208854FFE705A910
:104F100000200870FFE705A8007806B080BD80B5C6
:104F200086B004900391FFE704988421405C012837
:104F300004D1FFE705A90220087034E00499842217
:104F400001208854FFE7FFE704998822019224207A
:104F50008850049800680068029004980168086806
:104F6000012290430860049800688068072149077F
:104F7000884303990843049909688860049800F0FD
:104F8000C9FF019A029804990968086004992020D1
:104F90008850FFE70499842200208854FFE705A980
:104FA00000200870FFE705A8007806B080BD81B03A
:104FB000009001B0704781B0009001B0704781B09F
:104FC000009001B07047000080B5A8B00F900F9816
:104FD0000068C0690E900F98006800680D900F98E7
:104FE000006880680C900E98F44908400B900B986C
:104FF00000281DD1FFE70EA800788006002816D5EE
:10500000FFE70DA800788006002806D4FFE70CA86B
:10501000C078C00600280AD5FFE70F98406F002827
:1050200004D0FFE70F98416F8847FFE78BE2FFE767
:105030000B98002800D102E10C98E149084205D103
:10504000FFE70D98DF49084200D1F8E00EA800788C
:10505000C007002810D0FFE70DA84078C00700283F
:105060000AD0FFE70F980068012303620F9990228E
:10507000885818438850FFE70EA80078800700285A
:1050800011D5FFE70CA80078C00700280BD0FFE778
:105090000F980168022008620F9990228858042313
:1050A00018438850FFE70EA800784007002811D564
:1050B000FFE70CA80078C00700280BD0FFE70F9887
:1050C0000168042008620F9990228858022318432F
:1050D0008850FFE70EA800780007002815D5FFE7E5
:1050E0000DA800788006002805D4FFE70C98B44985
:1050F00008420AD0FFE70F980068082303620F995F
:105100009022885818438850FFE70EA8407800077F
:10511000002812D5FFE70DA8C078400700280CD55D
:10512000FFE70F9801680120C00208620F999022E2
:105130008858202318438850FFE70F989021405843
:1051400000287BD0FFE70EA800788006002816D53F
:10515000FFE70DA800788006002806D4FFE70CA81A
:10516000C078C00600280AD5FFE70F98406F0028D6
:1051700004D0FFE70F98416F8847FFE7FFE70F98DC
:10518000902140580A900F9800688068402108409C
:10519000402806D0FFE70AA800782821084244D01A
:1051A000FFE70F9801F016F80F9800688068400636
:1051B000002835D5FFE7FFE7EFF310801790179829
:1051C000099001202790279880F310880F98016894
:1051D000886840229043886009982690269880F33A
:1051E0001088FFE70F9880214058002813D0FFE770
:1051F0000F9880214258D64890630F984058FEF788
:105200001BFB002806D0FFE70F9880214058816BD8
:105210008847FFE703E00F98FFF7D1FEFFE703E0C1
:105220000F98FFF7CCFEFFE707E00F98FFF7C7FEE8
:105230000F99902200208850FFE7FFE783E10F9845
:10524000C06E012800D01DE10EA80078C00600281D
:1052500000D417E10DA80078C006002800D411E1A1
:105260000F980168102008620F9800688068400657
:10527000002800D495E00F988021405800684168CC
:1052800008A801800088002800D189E008A80088CB
:105290000F995C22895A884200DB81E008980F99B7
:1052A0005E2288520F98802140580068006880066E
:1052B000002868D4FFE7FFE7EFF3108016901698F8
:1052C000079001222592259880F310880F98016895
:1052D000086812029043086007982490249880F38D
:1052E0001088FFE7FFE7EFF3108015901598069000
:1052F00001222392239880F310880F980168886810
:105300009043886006982290229880F31088FFE7E7
:10531000FFE7EFF31080149014980590012021907E
:10532000219880F310880F98016888684022904384
:10533000886005982090209880F31088FFE70F99E7
:105340008C22202088500F990020C866FFE7EFF3D9
:10535000108013901398049001201F901F9880F3E1
:1053600010880F980168086810229043086004981C
:105370001E901E9880F31088FFE70F9880214058F8
:10538000FEF7FAF9FFE70F99022008670F985C21F2
:10539000415A5E22825A891A89B2FFF76EFDFFE7F1
:1053A000D1E00F9A5C20105A5E21525A801A03AA4B
:1053B00010800F98405A002863D005E00F080000C5
:1053C000010000102001000403A80088002858D024
:1053D000FFE7FFE7EFF31080129012980290012090
:1053E0001D901D9880F310880F98016808680922A5
:1053F00052019043086002981C901C9880F310881A
:10540000FFE7FFE7EFF31080119011980190012062
:105410001B901B9880F310880F98016888684B4A8E
:105420001040886001981A901A9880F31088FFE75E
:105430000F998C22202088500F990020C8660F9960
:105440004867FFE7EFF3108010901098009001205C
:105450001990199880F310880F9801680868102235
:105460009043086000981890189880F31088FFE720
:105470000F99022008670F9803A90988FFF7FDFC20
:10548000FFE760E00EA88078C00600280FD5FFE790
:105490000CA880784006002809D5FFE70F9801681E
:1054A0000120000508620F98FFF785FD4BE00EA86C
:1054B00000780006002816D5FFE70DA80078000642
:1054C000002806D4FFE70CA88078000600280AD53B
:1054D000FFE70F98806F002804D0FFE70F98816FD7
:1054E0008847FFE72FE00EA80078400600280AD57D
:1054F000FFE70DA800784006002804D5FFE70F98C5
:1055000000F0C4FE1FE00EA88078000600280AD52F
:10551000FFE70DA8C0784006002804D5FFE70F98E4
:10552000FFF745FD0FE00EA8C078C00700280AD09D
:10553000FFE70DA8C0780006002804D5FFE70F9804
:10554000FFF7A1FCFFE728B080BDC046FEFFFFEFDC
:10555000B161000880B582B000900098002804D1A5
:10556000FFE701A9012008704AE00098806900283F
:1055700001D0FFE700E0FFE70098882140580028AD
:1055800008D1FFE70099842200208854009800F099
:105590003BF8FFE700998822242088500098016892
:1055A0000868012290430860009800F095FE0128E9
:1055B00004D1FFE701A90120087021E00098806A6A
:1055C000002804D0FFE7009800F0EEFCFFE7009809
:1055D000016848680922D202904348600098016837
:1055E00088682A2290438860009801680868012230
:1055F00010430860009800F085FD01A90870FFE7DE
:1056000001A8007802B080BD80B592B01190002052
:10561000039010900F900E900D900C900B900A90AC
:1056200009900890079006901198006821498842D7
:105630003ED1FFE7012006900020079006A8FEF764
:10564000B7FB002803D0FFE7FDF73EFAFFE7FFE7CF
:1056500019480268012189030A4302600068084072
:1056600005900598FFE7FFE71448026801210A4307
:1056700002600068084004900498FFE7032040029D
:105680000C9002200D90002001900E900F900120B0
:105690001090052000070CA9FEF72CF9019A1B2099
:1056A00002901146FEF737FB0298FEF729FBFFE751
:1056B00012B080BD0038014040100240341002405A
:1056C0008CB00490039102A802800498882140586D
:1056D000202800D09BE00398002805D0FFE702A80F
:1056E0000088002804D1FFE705A90120087092E096
:1056F0000498806801210903884210D1FFE70498CB
:10570000006900280BD1FFE703A80078C007002834
:1057100004D0FFE705A9012008707CE0FFE70398AB
:1057200004990865029804995422885202980499B1
:105730005622885204990020886704999022885044
:1057400004998822212088500498406E012149073D
:1057500088422CD1FFE70498806801210903884220
:1057600009D1FFE704980069002804D1FFE70499F4
:105770002E48886703E004992B488867FFE7FFE716
:10578000EFF3108007900798019001220B920B987D
:1057900080F31088049801688868D20510438860F7
:1057A00001980A900A9880F31088FFE72BE004988C
:1057B000806801210903884209D1FFE70498006944
:1057C000002804D1FFE704991648886703E004998C
:1057D00013488867FFE7FFE7EFF31080069006980D
:1057E000009001200990099880F3108804980168BE
:1057F000086880221043086000980890089880F399
:105800001088FFE7FFE705A90020087003E005A95D
:1058100002200870FFE705A800780CB07047C0466A
:105820002D670008A5650008CB6700084D660008D5
:1058300081B0009001B07047FFE7FEE781B00090B3
:10584000009880684E490840401C0099886001B06B
:105850007047C04681B00090009880680121090718
:105860000843474908400099886001B07047C04626
:1058700081B000900098006807218905084001B0B8
:10588000704782B00190009101984069009904220C
:10589000114007228A401040C84002B0704781B0D2
:1058A0000090009880680121084001B0704781B0E5
:1058B000009000988068012109070840000F01B09E
:1058C000704781B000900098C0680321084001B083
:1058D000704781B0009000988068042108408008DB
:1058E00001B0704781B000900098C0680321890220
:1058F00008404142484101B07047000082B0019029
:105900000091009A034802400199886A1043886216
:1059100002B07047FFFF070082B00190009100982D
:10592000C243044802430199886A1040886202B069
:105930007047C0460000F8FF83B0029001910092CA
:105940000298806A019A1F210A400F23194691404C
:10595000884300999B061940890E9140084302999B
:10596000886203B07047000081B0009000988068A2
:1059700003490840001D0099886001B07047C04687
:10598000E8FFFF7F83B00290019100920298406986
:1059900001990A02904300991140034A11400843BB
:1059A0000299486103B0704700FFFF0782B0019081
:1059B00000910198006807218905884300990843F0
:1059C0000199086002B0704783B002900191009283
:1059D00002984069019A04210A40072191408843B6
:1059E0000099914008430299486103B07047000054
:1059F0000248006807210903084070470810024068
:105A000010B586B0002101910591049103911C48C5
:105A100002901C4A0260072293044360041D8160C7
:105A2000C1600161042343610176417681760123DF
:105A3000C36121771324A40144629B0283622C2357
:105A4000C1540163426382633C228154C164FDF707
:105A50000DFC002803D0FFE7FDF736F8FFE7012033
:105A60000390002004900590054803A9FDF744F831
:105A7000002803D0FFE7FDF727F8FFE706B010BDC9
:105A8000740000200024014010B58EB000200D905D
:105A90000C900B900A900990FFE7244802680121BE
:105AA0000A4302600068084008900898FFE7FFE793
:105AB0001E48026802210A430260006808400790FD
:105AC0000798FFE7FFE71948026808210A430260C8
:105AD0000068084006900698FFE715480190FF21EE
